:100000000C9489000C946B040C9444040C94B1007F
:100010000C94B1000C94B1000C94060D0C94B1003A
:100020000C94B1000C94B1000C94B1000C94B1008C
:100030000C94B1000C94B1000C94B1000C94B1007C
:100040000C94FA030C94B1000C94C9020C94A30212
:100050000C94B1000C94B1000C94B1000C94B1005C
:100060000C94250A0C94B100000000002400270025
:100070002A0000000000250028002B004572725362
:10008000756E4D6F6E54756557656454687546722C
:1000900069536174004572724A616E4665624D61D2
:1000A000724170724D61794A756E4A756C4175671F
:1000B0005365704F63744E6F76446563001F1C1F59
:1000C0001E1F1E1F1F1E1F1E1F00000000230026D4
:1000D00000290004040404040404040202020202CD
:1000E00002030303030303010204081020408001FC
:1000F000020408102001020408102000000008007B
:1001000002010000030407000000000000000000DE
:10011000A81111241FBECFEFD8E0DEBFCDBF11E084
:10012000A0E0B1E0EEEAF9E202C005900D92A83934
:10013000B107D9F723E0A8E9B1E001C01D92A136CB
:10014000B207E1F710E0C9E8D0E004C02197FE0152
:100150000E94CF14C838D107C9F70E94690D0C94CA
:100160008A120C94000081E08093B50108950895EF
:10017000FC01538D448D252F30E0842F90E0821BAD
:10018000930B541710F0CF96089501970895FC0132
:10019000918D828D981761F0828DDF01A80FB11DBE
:1001A0005D968C91928D9F5F9F73928F90E00895E2
:1001B0008FEF9FEF0895FC01918D828D981731F09C
:1001C000828DE80FF11D858D90E008958FEF9FEFF0
:1001D0000895FC01918D228D892F90E0805C9F4FC6
:1001E000821B91098F7399270895FC01848DDF018B
:1001F000A80FB11DA35ABF4F2C91848D90E001969A
:100200008F739927848FA689B7892C93A089B18988
:100210008C91837080648C93938D848D981306C029
:100220000288F389E02D80818F7D80830895EF928D
:10023000FF920F931F93CF93DF93EC0181E0888FA0
:100240009B8D8C8D981305C0E889F989808185FD87
:1002500026C0F62E0B8D10E00F5F1F4F0F73112776
:10026000E02E8C8DE8120CC00FB607FCFACFE8899F
:10027000F989808185FFF5CFCE010E94F500F1CF8D
:100280008B8DFE01E80FF11DE35AFF4FF0829FB7FF
:10029000F8940B8FEA89FB89808180620AC09FB73E
:1002A000F894EE89FF896083E889F98980818370F9
:1002B000806480839FBF81E090E0DF91CF911F91A8
:1002C0000F91FF90EF900895CF93DF93EC01888D0D
:1002D0008823C9F0EA89FB89808185FD05C0A8894A
:1002E000B9898C9186FD0FC00FB607FCF5CF8081D0
:1002F00085FFF2CFA889B9898C9185FFEDCFCE011A
:100300000E94F500E7CFDF91CF91089580E492E05D
:100310000E94E90021E0892B09F420E0822F089552
:1003200080E090E0892B29F00E94860181110C94D5
:1003300000000895089580E090E00895E9E6F0E077
:100340002081237F880F991F880F991F822B80831C
:10035000E99A0895CF93DF93EC018AE30E94AC06FB
:10036000CA30D1051CF480E30E94AC06BE01DD0F4B
:10037000880B990BDF91CF910C94B106CF93DF934B
:10038000EC010A971CF480E30E94AC06BE01DD0F6D
:10039000880B990BDF91CF910C94B106EF92FF92ED
:1003A0000F931F93CF93DF9381E08093BF0188E683
:1003B0008093E1011092C0011092E20163E08FE2AC
:1003C00092E00E94BD0881E00E946D0567E088E62A
:1003D0000E9492041092BE018093BD018FE292E0D0
:1003E0000E9474088F77982F92959F70CAEFD82F2C
:1003F0009C9FD00D11248FE292E00E9474089C0112
:10040000332794E0359527959A95E1F7182FC29FE9
:10041000100D11248FE292E00E9474089C01332792
:1004200044E0359527954A95E1F7082FC29F000DC6
:1004300011248FE292E00E947408BC01772754E0F7
:10044000759567955A95E1F7E82EC69FE00C112443
:100450008FE292E00E9474088FE292E00E9474089A
:100460009C01332764E0359527956A95E1F7F82ECE
:10047000C29FF00C11248FE292E00E9474089C014C
:10048000332774E0359527957A95E1F7C29F800D63
:100490001124682F70E09B012053384F4E2D50E0FF
:1004A000EDEBF0E081E08F1530F49491490F511D90
:1004B0008F5F3196F8CF82E08F1538F4CB018370CF
:1004C0009927892B11F44F5F5F4F2D5C374036958C
:1004D0002795369527958DE691E0689FF001699FF5
:1004E000F00D789FF00D11242E0F3F1F2150310980
:1004F000240F351FA8E1B0E00E9492149B01AC01CB
:10050000200F311D411D511DACE3B0E00E94A81425
:100510009B01AC01210F311D411D511D0E94A814EA
:10052000DC01CB018D0F911DA11DB11DBC01CD01C1
:1005300060587C4B8249974CDF91CF911F910F916E
:10054000FF90EF9008951F920F920FB60F92112413
:100550002F933F934F935F936F937F938F939F93CB
:10056000AF93BF93EF93FF9380E492E00E94F50076
:10057000FF91EF91BF91AF919F918F917F916F917B
:100580005F914F913F912F910F900FBE0F901F9051
:1005900018951F920F920FB60F9211242F938F93DD
:1005A0009F93EF93FF93E0915002F091510280816D
:1005B000E0915602F091570282FD12C09081809125
:1005C00059028F5F8F7320915A02821751F0E09188
:1005D0005902F0E0E05CFD4F958F8093590201C015
:1005E0008081FF91EF919F918F912F910F900FBE7E
:1005F0000F901F901895833081F028F4813099F086
:100600008230A1F008958730A9F08830B9F08430A5
:10061000D1F4809180008F7D03C0809180008F771E
:1006200080938000089584B58F7702C084B58F7D54
:1006300084BD08958091B0008F7703C08091B00091
:100640008F7D8093B00008951F93CF93DF93282F61
:1006500030E0F901E550FF4F8491F901E951FF4F76
:10066000D491F901ED52FF4FC491CC23C1F0162F64
:1006700081110E94FB02EC2FF0E0EE0FFF1FEE58FD
:10068000FF4FA591B4919FB7F894111104C08C91BC
:10069000D095D82302C0EC91DE2BDC939FBFDF9175
:1006A000CF911F910895CF93DF9390E0FC01E95122
:1006B000FF4F2491FC01ED52FF4F8491882361F19B
:1006C00090E0880F991FFC01E859FF4FC591D49124
:1006D000FC01EE58FF4FA591B491611109C09FB77D
:1006E000F8948881209582238883EC912E230BC077
:1006F000623061F49FB7F8948881322F309583235C
:100700008883EC912E2B2C939FBF06C08FB7F89453
:10071000E8812E2B28838FBFDF91CF9108953FB7BB
:10072000F89480919D0190919E01A0919F01B091BC
:10073000A00126B5A89B05C02F3F19F00196A11D69
:10074000B11D3FBFBA2FA92F982F8827820F911D67
:10075000A11DB11DBC01CD0143E0660F771F881FAD
:10076000991F4A95D1F708958F929F92AF92BF92A9
:10077000CF92DF92EF92FF926B017C010E948F0378
:100780004B015C01C114D104E104F104F1F00E94B9
:100790008F03DC01CB0188199909AA09BB09883E9E
:1007A0009340A105B10570F321E0C21AD108E10818
:1007B000F10888EE880E83E0981EA11CB11CC114BC
:1007C000D104E104F10419F7DDCFFF90EF90DF9041
:1007D000CF90BF90AF909F908F9008952FB7F894CF
:1007E0006091990170919A0180919B0190919C0177
:1007F0002FBF08951F920F920FB60F9211242F93BF
:100800003F938F939F93AF93BF9380919901909162
:100810009A01A0919B01B0919C013091980126E032
:10082000230F2D3720F40296A11DB11D05C029E824
:10083000230F0396A11DB11D209398018093990168
:1008400090939A01A0939B01B0939C0180919D018C
:1008500090919E01A0919F01B091A0010196A11DD0
:10086000B11D80939D0190939E01A0939F01B09331
:10087000A001BF91AF919F918F913F912F910F90C8
:100880000FBE0F901F9018951F920F920FB60F92E8
:1008900011242F933F934F935F936F937F938F9385
:1008A0009F93AF93BF93EF93FF93E0910201F09179
:1008B00003010995FF91EF91BF91AF919F918F91A6
:1008C0007F916F915F914F913F912F910F900FBE4C
:1008D0000F901F9018951F920F920FB60F92112430
:1008E0002F933F934F935F936F937F938F939F9338
:1008F000AF93BF93EF93FF93E0910001F09101015B
:100900000995FF91EF91BF91AF919F918F917F9149
:100910006F915F914F913F912F910F900FBE0F906C
:100920001F9018958F929F92AF92BF92CF92DF92B5
:10093000EF92FF920F931F93CF93DF93F82ED62F52
:10094000613208F0BBC00E948F034B015C01C09173
:100950002902CC2331F180912B0290912C02A0919D
:100960002D02B0912E02892B8A2B8B2B81F30E94B2
:100970008F0300912B0210912C0220912D023091B7
:100980002E02DC01CB0188199909AA09BB090817B5
:1009900019072A073B07D8F680912A020E94CC0942
:1009A0008DC081E080932902809308029FEF90938D
:1009B0000702109206029D0F909305028093040295
:1009C000909104028F2D880F892B809304028091CF
:1009D0000302813089F5109203020E948F036B019C
:1009E0007C01809104028093BB0080912B02909146
:1009F0002C02A0912D02B0912E02892B8A2B8B2BD9
:100A0000A9F00E948F0380902B0290902C02A0905E
:100A10002D02B0902E02DC01CB018C199D09AE098C
:100A2000BF0988169906AA06BB0690F18091BC0002
:100A300083FDD7CF85EC01C085EE8093BC000E947A
:100A40008F036B017C0180912902813031F5809107
:100A50002B0290912C02A0912D02B0912E02892B95
:100A60008A2B8B2B81F30E948F0380902B02909016
:100A70002C02A0902D02B0902E02DC01CB018C192B
:100A80009D09AE09BF0988169906AA06BB06D8F6C5
:100A900080912A020E94CC0912C0809106028D1713
:100AA00010F4D0910602E3EEF1E0A9E0B2E0C0E07C
:100AB000CD1729F081918D93CF5FFACFC0E08C2FB5
:100AC000DF91CF911F910F91FF90EF90DF90CF902A
:100AD000BF90AF909F908F9008958F929F92AF920A
:100AE000BF92CF92DF92EF92FF920F931F93CF931B
:100AF000DF931091E201113208F0C2C0082FD091AB
:100B0000E1010E948F036B017C01C0912902CC237B
:100B100011F180912B0290912C02A0912D02B091A5
:100B20002E02892B8A2B8B2B81F30E948F038090BE
:100B30002B0290902C02A0902D02B0902E02DC018E
:100B4000CB018C199D09AE09BF0988169906AA0622
:100B5000BB06D8F681C082E0809329020093080288
:100B60008FEF809307021092060210930502A1EC0A
:100B7000B1E0E3EEF1E080E0181721F09D91919350
:100B80008F5FFACF10920402909104028D2F880F8C
:100B9000892B8093040280910302813089F51092A1
:100BA00003020E948F036B017C01809104028093F9
:100BB000BB0080912B0290912C02A0912D02B0914C
:100BC0002E02892B8A2B8B2BA9F00E948F03009178
:100BD0002B0210912C0220912D0230912E02DC016B
:100BE000CB018C199D09AE09BF09081719072A07FF
:100BF0003B0790F18091BC0083FDD7CF85EC01C00D
:100C000085EE8093BC000E948F036B017C01809174
:100C10002902823039F580912B0290912C02A0910B
:100C20002D02B0912E02892B8A2B8B2B81F30E94EF
:100C30008F0300912B0210912C0220912D023091F4
:100C40002E02DC01CB018C199D09AE09BF090817E2
:100C500019072A073B07D8F680912A020E94CC097F
:100C6000C5E013C0809107028F3F79F080910702A1
:100C7000803241F080910702803331F0C4E005C03A
:100C8000C1E003C0C2E001C0C3E01092C0011092F5
:100C9000E2011092BF018C2FDF91CF911F910F9134
:100CA000FF90EF90DF90CF90BF90AF909F908F908C
:100CB0000895009769F0FC0101900020E9F7319751
:100CC000AF01481B590BBC0180E492E00C94EC0886
:100CD00080E090E008958F929F92AF92BF920F9321
:100CE0001F93CF93DF93CDB7DEB7A1970FB6F894DC
:100CF000DEBF0FBECDBF19A2423008F44AE08E011C
:100D00000F5D1F4F842E912CA12CB12CA5019401B5
:100D10000E947014E62FB901CA0101501109EA308E
:100D200014F4E05D01C0E95CD801EC93232B242B83
:100D3000252B61F7C8010E945906A1960FB6F894B9
:100D4000DEBF0FBECDBFDF91CF911F910F91BF903E
:100D5000AF909F908F900895682F80E492E00C945C
:100D60001701CF92DF92EF92FF92CF93DF9397FF1D
:100D700019C06B017C018DE20E94AC06EC01662774
:100D80007727CB016C197D098E099F094AE00E94E3
:100D90006B068C0F9D1FDF91CF91FF90EF90DF903E
:100DA000CF9008954AE0DF91CF91FF90EF90DF90D0
:100DB000CF900C946B06CF93DF930E945906EC0101
:100DC00085E991E00E9459068C0F9D1FDF91CF911C
:100DD0000895CF93DF93EB0191E09093BF0198E6E4
:100DE0009093E1011092C0011092E201682F8FE20E
:100DF00092E00E94BD0868818FE292E00E94BD08E7
:100E000081E0DF91CF910C946D05CF93DF93EC01DE
:100E100081E08093BF0188E68093E1011092C001D8
:100E20001092E2018FE292E00E94BD0881E00E94F0
:100E30006D0561E088E60E9492041092BE018093E5
:100E4000BD018FE292E00E9474088883DF91CF9108
:100E5000089590913B02992319F0882379F006C0F8
:100E6000882341F061E080E10E94240381E08093C7
:100E70003C02089560E080E10E94240310923C024D
:100E800008952F923F924F925F926F927F928F922E
:100E90009F92AF92BF92CF92DF92EF92FF920F9309
:100EA0001F93CF93DF93CDB7DEB72D970FB6F8948E
:100EB000DEBF0FBECDBF58877A87242E862E411104
:100EC0000CC083942CE0281550F43FEFC31AD30ACA
:100ED000332433948824839404C0342E02C03324F2
:100EE00033948A858D87EEE4EC0DAE2FB0E020E8D8
:100EF00033E341EE51E00E94A8142B013C0122EBA8
:100F000037E06D01E4E6F0E000E911E0C901825B41
:100F100097408C159D05DCF4C90183709927892BB6
:100F200099F4C901BF010E945C14892B31F4C901F5
:100F3000B8010E945C14892B39F4A0E84A0EA1E59F
:100F40005A1EA1E06A1E711C2F5F3F4FDFCFBEE427
:100F5000CB1AB8EFDB0AC60164E670E00E945C14AD
:100F60007C01C60160E971E00E945C145C010DEB3C
:100F700010E0E1E0F0E0912C23E0C222DD24E8154E
:100F8000F90534F5E230F10589F4C114D10471F4A6
:100F9000E114F10419F4A114B10441F430E8430E52
:100FA0003BE3531E36E2631E711C0EC0D8018C91C8
:100FB000A82FB0E020E831E541E050E00E94A814FD
:100FC000460E571E681E791E31960F5F1F4FD7CFF2
:100FD000BD852B2F30E0A0E1BEE00E949214460EAA
:100FE000571E681E791E088510E0C301B2010E94D9
:100FF000030C8091B9019801281B3109C90107969A
:1010000067E070E00E945C14232D30E0215031092C
:1010100067E0629FA001639F500D1124DC01A40FC3
:10102000B51F20E831E541E050E00E94B314640DA3
:10103000751D861D971D211004C060587A43894094
:1010400091092D960FB6F894DEBF0FBECDBFDF918C
:10105000CF911F910F91FF90EF90DF90CF90BF90B5
:10106000AF909F908F907F906F905F904F903F9048
:101070002F90089540913E03262F30E0240F311D1C
:1010800021323105DCF4209129022430C9F4FC011D
:1010900080E090E0861758F430913E032191DC0106
:1010A000A25EBC4FA30FB11D2C930196F3CF80918C
:1010B0003E03680F60933E0380E0089581E0089549
:1010C00082E00895089508950895E091BE01809109
:1010D000BD01E81730F4F0E0E75FFD4F808190E05C
:1010E00008958FEF9FEF08959091BE018091BD010B
:1010F000981750F4E92FF0E0E75FFD4F208130E0D2
:101100009F5F9093BE0102C02FEF3FEFC90108958A
:101110008091BD0190E02091BE01821B910908954C
:10112000CF92DF92EF92FF920F931F93CF93DF93B3
:101130007C01CB018A012091BF01222389F0EB01C0
:101140006B01C40ED51ECC15DD0569F06991D70180
:10115000ED91FC910190F081E02DC7010995F3CF4D
:10116000642F0E943A08C801DF91CF911F910F911F
:10117000FF90EF90DF90CF900895CF93DF931F9271
:10118000CDB7DEB769832091BF012223D1F0209132
:10119000E201203240F021E030E0FC013383228381
:1011A00080E090E015C08091C001E82FF0E0EF539F
:1011B000FE4F998190838F5F8093C0018093E201FD
:1011C00005C061E0CE0101960E943A0881E090E0FE
:1011D0000F90DF91CF910895CF92DF92EF92FF921F
:1011E0000F931F93CF93DF936C017A018B01C0E0C3
:1011F000D0E0CE15DF0581F0D8016D918D01D601CB
:10120000ED91FC910190F081E02DC6010995892BAB
:1012100011F02196EECF7E01C701DF91CF911F9192
:101220000F91FF90EF90DF90CF9008950E948D1264
:101230008F929F92AF92BF92CF92DF92EF92FF92E6
:101240000F931F93CF93DF936C01E090DD02F0903A
:10125000DE020091DF021091E0022091E102309164
:10126000E2024091E3025091E4026091E502709144
:10127000E6028091E7029091E8020E944107CDEDDD
:10128000D2E068A379A38AA39BA3E9EEF2E0E08011
:10129000F1800281138124813581468157816085E7
:1012A0007185828593850E9441076B017C016CA347
:1012B0007DA38EA39FA3AE89BF892CE330E00E945B
:1012C000A11408A119A12AA13BA148015901861A1C
:1012D000970AA80AB90A888E998EAA8EBB8EAA850B
:1012E000BB852CE330E00E94A114C61AD70AE80A95
:1012F000F90ACC8EDD8EEE8EFF8EDF91CF911F919D
:101300000F91FF90EF90DF90CF90BF90AF909F90A4
:101310008F900895CF93DF93E2E0F1E08491EEEEB9
:10132000F0E0D491EAEDF0E0C491CC2391F081118A
:101330000E94FB02EC2FF0E0EE0FFF1FE753FF4F80
:10134000A591B491EC91ED2381E090E021F480E04F
:1013500002C080E090E0DF91CF91089510922902C1
:1013600081E0809308021092030261E082E10E9412
:10137000240361E083E10E942403E9EBF0E0808133
:101380008E7F808380818D7F808380E28093B80010
:1013900085E48093BC000895CF93DF9391E0909310
:1013A0001D038823B9F0C091B800D091BA00809194
:1013B000BC008A7B8093BC0060E082E10E94240331
:1013C00060E083E10E9424030E94AE09D093BA003A
:1013D000C093B800DF91CF91089585ED8093BC0054
:1013E00080912B0290912C02A0912D02B0912E029F
:1013F0000796A11DB11D23E0B695A79597958795F2
:101400002A95D1F72091BC0024FF1CC040912B02EB
:1014100050912C0260912D0270912E02452B462B8B
:10142000472B81F30097A105B10541F025E12A95ED
:10143000F1F700000197A109B109E4CF80912A02D8
:101440000C94CC091092290208951F920F920FB6A6
:101450000F9211242F933F934F935F936F937F933A
:101460008F939F93AF93BF93EF93FF938091B900B6
:10147000887F803609F49CC068F5883209F45BC027
:1014800090F4803109F454C038F4882309F4F6C08C
:10149000883009F44DC0F6C0883109F44CC0803260
:1014A00009F45DC0EFC0803409F468C048F48033AB
:1014B00009F455C0883309F0E5C080930702D8C00D
:1014C000803509F44FC0883509F45DC0883409F0CF
:1014D000D9C0D6C0883909F4C7C0A8F4883709F440
:1014E00067C038F4883609F463C0803709F460C0F7
:1014F000C9C0883809F4B8C0803909F45FC08038A1
:1015000009F0C0C05BC0803B09F486C038F4803A63
:1015100009F466C0883A09F47FC0B4C0803C09F47D
:10152000A7C0883C09F4A4C0883B09F48AC0AAC0BB
:101530008091040210C090910602809105029817D4
:1015400070F5E091060281E08E0F80930602F0E0D4
:10155000ED51FE4F80818093BB0085EC86C0809367
:1015600007028EC0E091060281E08E0F8093060292
:101570008091BB00F0E0ED51FE4F80839091060218
:10158000809105026EC0E091060281E08E0F80938B
:1015900006028091BB00F0E0ED51FE4F8083809108
:1015A000080281116DC081E08093030284EA61C06A
:1015B00083E08093290210926003CFCF8091600373
:1015C000803208F051C0E091600381E08E0F80937B
:1015D00060038091BB00F0E0E05CFC4F8083BDCFF6
:1015E00085EC8093BC0010922902809160038032C8
:1015F00030F4E0916003F0E0E05CFC4F1082609119
:10160000600370E0E0911303F091140380E493E031
:1016100009951092600336C084E0809329021092ED
:101620003F0310923E03E0911103F09112030995DC
:1016300080913E03811105C081E080933E031092AA
:101640001E03E0913F0381E08E0F80933F03F0E0A3
:10165000E25EFC4F80818093BB0090913F038091BC
:101660003E03981708F479CF85E88093BC000AC040
:1016700085EC8093BC001092290204C010920702EE
:101680000E94ED09FF91EF91BF91AF919F918F91D2
:101690007F916F915F914F913F912F910F900FBE6E
:1016A0000F901F901895CF92DF92EF92FF920F93B9
:1016B0001F930E94EE03C0901903D0901A03E0908C
:1016C0001B03F0901C038B019C010C191D092E09B2
:1016D0003F0980910D0390910E03A0910F03B091EB
:1016E0001003083E134021053105D0F00196A11DDD
:1016F000B11D80930D0390930E03A0930F03B0933D
:101700001003B701A60148515C4F6F4F7F4F4093C4
:10171000190350931A0360931B0370931C03C9CFE2
:101720004091090350910A0360910B0370910C03DF
:1017300084179507A607B70708F456C0E09107037A
:10174000F0910803309709F44FC0099561157105B0
:101750008105910539F160930D0370930E03809319
:101760000F0390931003DC01CB01845D9E4FAF4FBC
:10177000BF4F8093090390930A03A0930B03B09388
:101780000C0382E090E090930603809305030E948F
:10179000EE036093190370931A0380931B039093D5
:1017A0001C0322C080910D0390910E03A0910F03A2
:1017B000B0911003845D9E4FAF4FBF4F80930903DC
:1017C00090930A03A0930B03B0930C0381E090E085
:1017D0002091050330910603232B11F480E090E063
:1017E000909306038093050360910D0370910E039F
:1017F00080910F03909110031F910F91FF90EF9034
:10180000DF90CF9008954F925F926F927F928F9268
:101810009F92AF92BF92CF92DF92EF92FF920F937F
:101820001F93CF93DF934B015C018091150390913F
:101830001603A0911703B091180388159905AA05FE
:10184000BB0509F4D2C08CE3C82ED12CE12CF12CBD
:10185000C501B401A70196010E9470146093B601FE
:10186000CA01B901A70196010E9470146093B701E3
:10187000C501B40120E13EE040E050E00E94701458
:10188000CA01B90128E130E040E050E00E94701444
:101890006093B801C501B40120E831E541E050E0B2
:1018A0000E94701469017A01CA01B9016C5F7F4F0F
:1018B0008F4F9F4F27E030E040E050E00E947014CF
:1018C0006F5F6093B901412C512C320140E004E676
:1018D00010E0C0E9D1E0242F30E02E54384FF90158
:1018E000E370FF27309789F4C901B8010E945C14A6
:1018F000892B31F4C901BE010E945C14892B29F4A3
:101900008EE691E0A0E0B0E004C08DE691E0A0E0BA
:10191000B0E0480E591E6A1E7B1ED301C201AA27E1
:10192000BB27C816D906EA06FB0610F04F5FD3CFD7
:101930004093BC01309799F4C90164E670E00E94BD
:101940005C14892B39F4C90160E971E00E945C14D0
:10195000892B29F48EE691E0A0E0B0E004C08DE68A
:1019600091E0A0E0B0E0481A590A6A0A7B0AC4185C
:10197000D508E608F708C90164E670E00E945C1427
:10198000EC01C90160E971E00E945C14ADEBB0E0CC
:1019900020E0213039F4309749F4209729F400975A
:1019A00029F402C04C9103C04DE101C04CE150E06C
:1019B00060E070E0C416D506E606F70640F0C41AEB
:1019C000D50AE60AF70A2F5F11962C3011F72F5F20
:1019D0002093BB01C394C092BA01809215039092E8
:1019E0001603A0921703B0921803DF91CF911F91B5
:1019F0000F91FF90EF90DF90CF90BF90AF909F90AE
:101A00008F907F906F905F904F9008951F920F92EC
:101A10000FB60F9211248F930FB6F894A89580916A
:101A20006000886180936000109260000FBE8F910B
:101A30000F900FBE0F901F9018954115510529F476
:101A4000EAE7F0E080818F7780836A307105A9F042
:101A500063FD02C088E001C088E26770682B88E1FE
:101A60000FB6F894A895809360000FBE6093600055
:101A7000E0E6F0E0808180648083232BA1F483B7CB
:101A8000817F846083BFF89483B7816083BF85B70B
:101A9000806685BF8F7D85BF7894889583B78E7F5C
:101AA00083BF78940EC083B7817F846083BFF8942E
:101AB00083B7816083BF7894889583B78E7F83BF17
:101AC0007894452B29F4EAE7F0E0808180688083F0
:101AD0000895CF93DF9300D000D01F92CDB7DEB72B
:101AE000789484B5826084BD84B5816084BD85B5F9
:101AF000826085BD85B5816085BD80916E00816005
:101B000080936E00109281008091810082608093AA
:101B100081008091810081608093810080918000AC
:101B20008160809380008091B10084608093B100D7
:101B30008091B00081608093B00080917A008460D1
:101B400080937A0080917A00826080937A008091FD
:101B50007A008E7F80937A0080917A0080688093EB
:101B60007A001092C10061E08DE00E94530360E0B2
:101B70008DE00E94240380E00E94290780913B02AF
:101B8000811104C060E084E00E94240310923D02B1
:101B900083EB90E0909303018093020180E090E05A
:101BA0000E949E01E0915002F091510282E08083F8
:101BB000E0914C02F0914D021082E0914E02F091C2
:101BC0004F0287E6808310925802E0915402F09110
:101BD000550286E08083E0915202F09153028081A9
:101BE00080618083E0915202F0915302808188608D
:101BF0008083E0915202F09153028081806880835B
:101C0000E0915202F091530280818F7D808382E4C3
:101C100091E00E94DB0662E370E080E090E00E94C9
:101C2000B4031092BE011092BD011092C001109237
:101C3000E2010E94AE0982E698E09093120380933D
:101C4000110383E698E0909314038093130362E0FA
:101C5000CE0101960E94050789818F3FB9F188E581
:101C60008D83BE016B5F7F4F80E00E94E9066FE0CD
:101C7000CE0101960E940507898188638C83BE018D
:101C80006C5F7F4F8FE00E94E9061B82BE016D5F93
:101C90007F4F82E00E94E90660E0CE0101960E943B
:101CA00005071A82BE016E5F7F4F81E00E94E90640
:101CB00060E0CE0101960E940507898180688983D2
:101CC000BE016F5F7F4F80E00E94E9068EEC91E0DD
:101CD000909308038093070380910D0390910E0366
:101CE000A0910F03B09110038093090390930A030E
:101CF000A0930B03B0930C030E94530B0E94530B51
:101D00008091050390910603029719F08AE491E00F
:101D100002C086E691E00E94DB0611E007E423E0C2
:101D2000222E312C80913B02882361F080913C026D
:101D300010933E0281110BC080E00E94290710928F
:101D40003E020CC00E948A09181619061CF4109352
:101D50003E020EC080913E028111EECF20E030E0C5
:101D600040E050E06AE070E08BE392E00E941D0DDD
:101D70008091B501882309F4EBC0E99887EB90E0E6
:101D800090930301809302011092B50180910401A8
:101D9000909105018130910509F43FC0039709F046
:101DA00039C20E94EE036093B1017093B201809337
:101DB000B3019093B40180913B02882331F080916C
:101DC0003C0290E010933E0202C00E948A0918165D
:101DD00019061CF410933E020DC081E00E942907F1
:101DE00080913B02811104C061E084E00E942403E1
:101DF00010933D02A1E0B0E0B0930501A09304016F
:101E000061E08DE00E94240383EB90E09093030156
:101E10008093020181E090E098C00E94EE036B0184
:101E20007C016093AD017093AE018093AF019093FC
:101E3000B001309205012092040180913B02882379
:101E400031F080913C0290E010933E0202C00E946B
:101E50008A09181619060CF06CC010933E02809186
:101E6000B1019091B201A091B301B091B401C81A2F
:101E7000D90AEA0AFB0A91E4C9169FE1D906E104EE
:101E8000F10470F080E00E94290780913B028111EB
:101E900004C060E084E00E94240310923D0249C027
:101EA000A1EDCA16A7E0DA06E104F10408F441C086
:101EB00080913B02882339F068E873E180E090E08C
:101EC0000E94B403DFCF61E081E10E9424030E94FD
:101ED000EE032B013C010E948A097C0180E090E026
:101EE000DC011E141F04BCF480339547A105B10525
:101EF00090F40E948A097C0162E370E080E090E047
:101F00000E94B4030E94EE03DC01CB018419950901
:101F1000A609B709E6CF68E873E180E090E00E9487
:101F2000B40380E00E94290760E081E10E9424035D
:101F3000ACCF60E08DE00E94240383EB90E09093AF
:101F400003018093020180E090E00E949E0162C143
:101F50000E94530B2B013C010E94030CE090BC013A
:101F6000F12C9EE4E91A98EFF90A6091F50270915C
:101F7000F6028091F7029091F8020E94030C809182
:101F8000BC0190E08E54984F8E159F0559F0C30107
:101F9000B2010E94030C8091BC0190E08E54984FD6
:101FA0000E941809C301B2010E94030CE090BC0119
:101FB000F12CAEE4EA1AA8EFFA0A6091F5027091EA
:101FC000F6028091F7029091F8020E94030C809132
:101FD000BC0190E08E54984F8E159F0559F0C301B7
:101FE000B2010E94030C8091BC0190E08E54984F86
:101FF0000E9418094091F9025091FA026091FB0287
:102000007091FC028091F5029091F602A091F70286
:10201000B091F802481759076A077B0709F4FDC019
:1020200084179507A607B70760F4481659066A068D
:102030007B0608F4F2C0441655066606770660F083
:10204000ECC0441655066606770630F04816590669
:102050006A067B0608F4E1C08DED92E09093AC0136
:102060008093AB01A091E702B091E8022CE330E04D
:102070000E94A114460E571E681E791EC090AB0127
:10208000D090AC018BE50E94AC06C301B2010E9466
:10209000030C8091B901982F990F890F91EAE92ECD
:1020A00091E0F92ED70120E030E090E0FC01E20F52
:1020B000F31FE458FF4FE491ED932F5F3F4F233020
:1020C0003105A1F71092A40181EA91E00E9459061E
:1020D00080E20E94AC06C301B2010E94030C209171
:1020E000BB01B3E02B9F9001112480E090E0F90147
:1020F000E80FF91FEB56FF4FE491D701ED937D01F7
:1021000001968330910599F71092A40181EA91E03C
:102110000E94590680E20E94AC06C301B2010E94EF
:10212000030C8091BA0190E00E94BE0180E20E94FF
:10213000AC06C301B2010E94030C8091B80190E08B
:102140000E94BE01C301B2010E94030C8091B7013D
:1021500090E00E94AA01C301B2010E94030C809189
:10216000B60190E00E94AA0180E20E94AC06C6017E
:102170000E94590680E20E94AC06C301B2010E948F
:10218000030C6091BC0170E06E54784F072E000C78
:10219000880B990B0E94B10682E891E00E945906D3
:1021A00000937C0080917A00806480937A00809113
:1021B0007A0086FDFCCF609178008091790070E014
:1021C000782B6430710514F460E070E0072E000C89
:1021D000880B990B0E9435132BE734E14EE450E451
:1021E0000E94EA136B017C012B013C019B01AC01B5
:1021F0000E9457148823E1F085E891E00E94590677
:1022000081E991E00E94DB0664EF71E080E090E0FC
:102210000E94B4030E94900185CDA9EEB2E0B09374
:10222000AC01A093AB01A091F302B091F4021ECFD8
:1022300046015701E894B7F82FEF3FEF4FE75FE70C
:10224000C501B4010E94571481110DC02FEF3FEF5B
:102250004FE75FE7C501B4010E94FF1218161CF496
:1022600089E891E0CBCF2FEF3FEF4FE75FE4C70165
:10227000B6010E94E51318161CF48DE891E0BECF5C
:102280002FEF3FEF4FE75FECC701B6010E94FF124F
:1022900087FDF3CF20E030E0A901C701B6010E941D
:1022A000FF1287FF09C08DE20E94AC0626013701AC
:1022B00077FA709477F870942AE037ED43EA5BE39D
:1022C000C301B2010E9493122B013C010E9404132E
:1022D0006B017C010E9433139B01AC01C301B2016D
:1022E0000E9492122B013C014AE0C701B6010E94F4
:1022F0006B068EE20E94AC0620E030E040E251E442
:10230000C301B2010E94EA132B013C010E94041395
:102310006B01E12CF12C4AE0C701B6010E946B066B
:10232000C701B6010E9433139B01AC01C301B20186
:102330000E94921220E030E040E251E40E94EA1351
:102340000E94041380E090E04AE00E946B0658CFA0
:10235000CF93DF93CDB7DEB768970FB6F894DEBFA3
:102360000FBECDBF109232021092310288EE93E080
:10237000A0E0B0E08093330290933402A093350242
:10238000B09336028AE091E09093300280932F025E
:1023900010923B0210923F0210923E0210923C02B9
:1023A00010923D0261E080E10E94530380E00E94B0
:1023B000290761E084E00E94530380913B02811170
:1023C00004C060E084E00E94240310923D0261E0BA
:1023D00081E10E94530360E081E10E94240360E0F8
:1023E00087E00E94530360E083E00E94530360E0B3
:1023F00082E00E945303109243021092420288EE40
:1024000093E0A0E0B0E08093440290934502A09353
:102410004602B09347028CE191E090934102809391
:10242000400285EC90E090934D0280934C0284EC46
:1024300090E090934F0280934E0280EC90E0909356
:1024400051028093500281EC90E09093530280936C
:10245000520282EC90E0909355028093540286ECF5
:1024600090E0909357028093560210925902109276
:102470005A0210925B0210925C028CE0E6E3F1E0FB
:10248000DE011D9601900D928A95E1F78CE0EAE25B
:10249000F1E0DE01119601900D928A95E1F78CE052
:1024A000FE013D96ADEDB2E001900D928A95E1F707
:1024B0008CE0FE013196A9EEB2E001900D928A9572
:1024C000E1F71092FD021092FE021092FF021092AC
:1024D0000003109201031092020310920303109262
:1024E00004031092F5021092F6021092F702109275
:1024F000F8021092F9021092FA021092FB02109266
:10250000FC0268960FB6F894DEBF0FBECDBFDF9118
:10251000CF910895F8940C94D51481E090E0F8944C
:102520000C94D5145058BB27AA270E94AA120C94C9
:10253000AB130E949D1338F00E94A41320F039F4CD
:102540009F3F19F426F40C949A130EF4E095E7FBE0
:102550000C949413E92F0E94BC1358F3BA17620726
:1025600073078407950720F079F4A6F50C94DE1321
:102570000EF4E0950B2EBA2FA02D0B01B90190019E
:102580000C01CA01A0011124FF27591B99F0593FE2
:1025900050F4503E68F11A16F040A22F232F342F2A
:1025A0004427585FF3CF469537952795A795F04078
:1025B0005395C9F77EF41F16BA0B620B730B840B8D
:1025C000BAF09150A1F0FF0FBB1F661F771F881F45
:1025D000C2F70EC0BA0F621F731F841F48F487959D
:1025E00077956795B795F7959E3F08F0B0CF93958F
:1025F000880F08F09927EE0F9795879508950E9408
:10260000701308F481E008950E94C41388F09F5766
:1026100098F0B92F9927B751B0F0E1F0660F771F06
:10262000881F991F1AF0BA95C9F714C0B13091F0FC
:102630000E94DE13B1E008950C94DE13672F782F0B
:102640008827B85F39F0B93FCCF3869577956795C1
:10265000B395D9F73EF490958095709561957F4F2D
:102660008F4F9F4F0895E89409C097FB3EF49095D3
:102670008095709561957F4F8F4F9F4F9923A9F05B
:10268000F92F96E9BB279395F695879577956795EA
:10269000B795F111F8CFFAF4BB0F11F460FF1BC02E
:1026A0006F5F7F4F8F4F9F4F16C0882311F096E9C1
:1026B00011C0772321F09EE8872F762F05C066236F
:1026C00071F096E8862F70E060E02AF09A95660F28
:1026D000771F881FDAF7880F9695879597F90895E1
:1026E000990F0008550FAA0BE0E8FEEF1616170623
:1026F000E807F907C0F012161306E407F50798F08B
:10270000621B730B840B950B39F40A2661F0232BA3
:10271000242B252B21F408950A2609F4A140A6951F
:102720008FEF811D811D089597F99F6780E870E004
:1027300060E008959FEF80EC089500240A94161637
:10274000170618060906089500240A94121613069F
:10275000140605060895092E0394000C11F488232D
:1027600052F0BB0F40F4BF2B11F460FF04C06F5F49
:102770007F4F8F4F9F4F089557FD9058440F551F1F
:1027800059F05F3F71F04795880F97FB991F61F0F3
:102790009F3F79F087950895121613061406551F6A
:1027A000F2CF4695F1DF08C0161617061806991FD6
:1027B000F1CF86957105610508940895E894BB27CB
:1027C00066277727CB0197F908950E94701308F4C4
:1027D0008FEF08950E94FD130C94AB130E949D137C
:1027E00038F00E94A41320F0952311F00C94941358
:1027F0000C949A1311240C94DF130E94BC1370F3F1
:10280000959FC1F3950F50E0551F629FF001729F95
:10281000BB27F00DB11D639FAA27F00DB11DAA1FA4
:10282000649F6627B00DA11D661F829F2227B00DF1
:10283000A11D621F739FB00DA11D621F839FA00D7C
:10284000611D221F749F3327A00D611D231F849FCC
:10285000600D211D822F762F6A2F11249F57504023
:102860009AF0F1F088234AF0EE0FFF1FBB1F661F9E
:10287000771F881F91505040A9F79E3F510580F067
:102880000C9494130C94DF135F3FE4F3983ED4F35D
:10289000869577956795B795F795E7959F5FC1F70B
:1028A000FE2B880F911D9695879597F908950E94A4
:1028B0007013880B990B089597FB072E16F400945C
:1028C00007D077FD09D00E94BB1407FC05D03EF469
:1028D000909581959F4F0895709561957F4F0895CC
:1028E000A1E21A2EAA1BBB1BFD010DC0AA1FBB1F14
:1028F000EE1FFF1FA217B307E407F50720F0A21B86
:10290000B30BE40BF50B661F771F881F991F1A94F2
:1029100069F760957095809590959B01AC01BD011C
:10292000CF010895A29FB001B39FC001A39F700D76
:10293000811D1124911DB29F700D811D1124911DC7
:1029400008950E949214B7FF0895821B930B089577
:102950000E949214A59F900DB49F900DA49F800D8E
:10296000911D11240895B7FF0C94A8140E94A81477
:10297000821B930B0895AA1BBB1B51E107C0AA1F22
:10298000BB1FA617B70710F0A61BB70B881F991F10
:102990005A95A9F780959095BC01CD010895EE0F49
:0E29A000FF1F0590F491E02D0994F894FFCFED
:1029AE00B700B700030000000000BD0890089B01AF
:1029BE006408880874086508000000001701EC0818
:1029CE00B8006401E900C700DB005053540000005A
:1029DE0001010B0220FE50445400000002010302CC
:1029EE005CFE53746172742E2E00556E61626C65BE
:1029FE0020746F2073796E63207769746820746811
:102A0E00652052544300525443206861732073650D
:102A1E0074207468652073797374656D2074696DA4
:102A2E0065005D20006E616E00696E66006F7666F1
:082A3E0000206D41000D0A00AB
:00000001FF
